:0400000039EF00F0E4
:100008005182FACF20F0FBCF21F0E1CF22F0E2CFEE
:1000180023F0D9CF24F0DACF25F0F3CF26F0F4CFB0
:1000280027F0F6CF28F0F7CF29F0F8CF2AF0F5CF50
:100038002BF087EC05F02BC0F5FF2AC0F8FF29C08C
:10004800F7FF28C0F6FF27C0F4FF26C0F3FF25C03E
:10005800DAFF24C0D9FF23C0E2FF22C0E1FF21C09C
:0E006800FBFF20C0FAFF51921100F1EF13F0E0
:1003000000D3034803A5037C0305010906A10105E9
:100310000719E029E7150025017501950881029567
:1003200001750881039505750105081901290591D5
:10033000029501750391039506750815002565055D
:1003400007190029658100C034034D00690063006E
:1003500072006F00630068006900700020005400A4
:100360006500630068006E006F006C006F0067003E
:100370007900200049006E0063002E000902290068
:10038000010100C03209040000020301010009213B
:1003900011010001223F0007058103080001070544
:1003A00001030800011C034B006500790062006F27
:1003B000006100720064002000440065006D006F61
:1003C000001201000200000008D8045500010001DD
:1003D0000200010403090400200E0001D161F3EFC3
:1003E00001F0F5EF01F0F7EF01F0D8EF03F064A2B0
:1003F000FCEF01F0FEEF01F006EF02F054EC16F016
:10040000D8EF03F03DC0CCF03EC0CDF03D50CC194C
:1004100007E13E50CD19D8A410EF02F012EF02F020
:1004200002EF02F03B50CC5DF36F3C50CD59F46FBE
:10043000F4BF1FEF02F01DEF02F02BEF02F03B5074
:10044000CC5DEE6F3C50CD59EF6FFF0EEE25F36F94
:100450007F0EEF21F46FF4BF37EF02F0890EF35DEA
:10046000130EF459D8A037EF02F039EF02F03FEF46
:1004700002F0780ECC253B6EEC0ECD213C6E2C505C
:100480002D10D8B446EF02F048EF02F053EF02F01F
:100490002CC0D9FF2DC0DAFFDFBE51EF02F053EFC1
:1004A00002F0B2EF03F0400EE26F020EE36F000EB7
:1004B000E56F000EE46F000EE76F080EE66F41EC8B
:1004C00008F0000E0001F16F000EF06FD051D8B4AB
:1004D0006CEF02F06EEF02F04EEF03F0E1B173EF5C
:1004E00002F077EF02F0EE6BEE2B79EF02F00001F5
:1004F000EE6B020140510001EE19FE0BEE190201F4
:10050000406F0001E1B387EF02F08BEF02F0EE6B7A
:10051000EE2B8DEF02F00001EE6BEE470201405131
:100520000001EE19FD0BEE190201406F0001E1B56B
:100530009CEF02F0A0EF02F0EE6BEE2BA2EF02F0C8
:100540000001EE6BEE47EE47020140510001EE194B
:10055000FB0BEE190201406F0001E1B7B2EF02F0B0
:10056000B6EF02F0EE6BEE2BB8EF02F00001EE6B8F
:10057000EE47EE47EE47020140510001EE19F70B3E
:10058000EE190201406F0001E1B9C9EF02F0CDEFB1
:1005900002F0EE6BEE2BCFEF02F00001EE6BEE3BC4
:1005A000020140510001EE19EF0BEE190201406FFC
:1005B0000001E1BBDEEF02F0E2EF02F0EE6BEE2BAA
:1005C000E4EF02F00001EE6BEE3BEE47020140511A
:1005D0000001EE19DF0BEE190201406F0001E1BDD1
:1005E000F4EF02F0F8EF02F0EE6BEE2BFAEF02F010
:1005F0000001EE6BEE3BEE47EE4702014051000179
:10060000EE19BF0BEE190201406F0001E1BF0BEFC5
:1006100003F00FEF03F0EE6BEE2B11EF03F0000190
:10062000EE6BEE33EE33020140510001EE197F0B09
:10063000EE190201406F000E0001F76F000EF66F19
:10064000DB0EF625D96E000EF721DA6EDF50D8B436
:100650002CEF03F02EEF03F03EEF03F0DB0EF62558
:10066000D96E000EF721DA6E420EF625E16E020E0B
:10067000F721E26EDFCFE7FFF04BF12BF64BF72BC4
:10068000F7BF4CEF03F0F75109E1060EF65DD8A075
:100690004CEF03F04EEF03F020EF03F0000EF26F8B
:1006A000000EF56F400EF525D96EDA6A020EDA22D9
:1006B000A80EF525E16EE26A000EE222DE50E61891
:1006C000D8B465EF03F067EF03F06BEF03F0010EB2
:1006D000F26F74EF03F0F52B070EF56572EF03F080
:1006E00074EF03F052EF03F0CE51CF11D8B47BEF8B
:1006F00003F07DEF03F08EEF03F0CE51F35DF45184
:10070000800AEE6FCF51800AEE59D8A08AEF03F02D
:100710008CEF03F08EEF03F0010EF26FF205D8A418
:1007200094EF03F096EF03F0B2EF03F022EE40F007
:1007300010EEA8F0070EDBCFE3FFE806FCE2010EA7
:10074000E26F400EE36F020EE46F080EE56F010EDC
:1007500082EC0CF0E2C02CF0E3C02DF0CCC03BF0FA
:10076000CDC03CF02E502F10D8B4B9EF03F0BBEF42
:1007700003F0C6EF03F02EC0D9FF2FC0DAFFDFBEB3
:10078000C4EF03F0C6EF03F0D8EF03F043EC15F02D
:10079000000E0001E26F480EE36F020EE46F010EDF
:1007A000E56F010E82EC0CF0E2C02EF0E3C02FF0FA
:1007B000120002012205D8A4E0EF03F0E2EF03F0FB
:1007C000FEEF03F020511F0B0009D8A4EAEF03F05D
:1007D000ECEF03F0FEEF03F00001BB8F030E02010C
:1007E0002119D8A4F6EF03F0F8EF03F0FCEF03F0C3
:1007F000010E496EFEEF03F0000E496E2251D8A49F
:1008000004EF04F006EF04F086EF05F020511F0B13
:10081000020AD8A40EEF04F010EF04F086EF05F002
:1008200024510F0B0009D8B418EF04F01AEF04F0AC
:1008300086EF05F024510F0B156E020E156023EFA5
:1008400004F025EF04F086EF05F0200E0001D11929
:10085000D8A42DEF04F02FEF04F086EF05F0BB8F46
:10086000020124BF36EF04F038EF04F055EF04F036
:1008700024510F0B156E1550020DC20EF324D96EC4
:10088000000EF420DA6EDECF1AF0DDCF1BF024511B
:100890000F0B156E166AC60E1524D96E000E1620A3
:1008A000DA6EDF50196E70EF04F024510F0B156EE5
:1008B0001550020DBE0EF324D96E000EF420DA6E30
:1008C000DECF1AF0DDCF1BF024510F0B156E166A28
:1008D000C80E1524D96E000E1620DA6EDF50196E80
:1008E00019B075EF04F077EF04F07FEF04F0FB0E22
:1008F0001A141A6EFF0E1B141B6E84EF04F0040E04
:100900001A101A6E1B501B6E24BF89EF04F08BEF78
:1009100004F09CEF04F024510F0B156E1550020DDE
:10092000C20EF324D96E000EF420DA6E1AC0DEFF78
:100930001BC0DDFFABEF04F024510F0B156E1550FB
:10094000020DBE0EF324D96E000EF420DA6E1AC02A
:10095000DEFF1BC0DDFF030E2119D8A4B2EF04F0A7
:10096000B4EF04F0EEEF04F01AC0D9FF1BC0DAFFB9
:10097000DFAEBDEF04F0BFEF04F0E0EF04F024BF02
:10098000C4EF04F0C6EF04F0D4EF04F024510F0BD1
:10099000156E166AC60E1524D96E000E1620DA6E74
:1009A0000001DF82E0EF04F024510F0B156E166A90
:1009B000C80E1524D96E000E1620DA6E0001DF82F3
:1009C0001AC0D9FF1BC0DAFF000EDB841AC0D9FFA2
:1009D0001BC0DAFF000EDB8E86EF05F0040E1A183E
:1009E0001A6E1B501B6E1AC0D9FF1BC0DAFFDFAE98
:1009F000FCEF04F0FEEF04F01AEF05F01AC0D9FF87
:100A00001BC0DAFF7F0EDF161AC0D9FF1BC0DAFF4A
:100A1000000EDB8C000E0E6E050E0D6E1AC00FF070
:100A20001BC010F0000E126E020E116E9DEC11F044
:100A300020EF05F01AC0D9FF1BC0DAFF000EDB8CD7
:100A4000040E1A181A6E1B501B6E19B22AEF05F00D
:100A50002CEF05F037EF05F01AC0D9FF1BC0DAFF05
:100A6000DFAE35EF05F037EF05F06FEF05F002016F
:100A700024BF3DEF05F03FEF05F04DEF05F02451A9
:100A80000F0B156E166AC60E1524D96E000E1620B1
:100A9000DA6E0001DF9259EF05F024510F0B156E4D
:100AA000166AC80E1524D96E000E1620DA6E0001E3
:100AB000DF921AC0D9FF1BC0DAFF3B0EDF16000E13
:100AC0000E6E050E0D6E1AC00FF01BC010F0000E5A
:100AD000126E020E116E9DEC11F075EF05F01AC04A
:100AE000D9FF1BC0DAFF3B0EDF16020124510F0BAA
:100AF000156E166A530E1524176E0F0E1620186EFB
:100B000017C0D9FF18C0DAFFFE0EDF161200000171
:100B1000D105D8A48EEF05F090EF05F09DEF05F01C
:100B200064BA95EF05F097EF05F09DEF05F0000E24
:100B3000626E60806088020ED16F62A4A2EF05F041
:100B4000A4EF05F0AEEF05F060A4A9EF05F0ABEF60
:100B500005F0AEEF05F0629489EC15F064A2B3EFF6
:100B600005F0B5EF05F0B8EF05F0A1949EEF06F0A3
:100B700062A0BDEF05F0BFEF05F0CDEF05F060A07E
:100B8000C4EF05F0C6EF05F0CDEF05F0D8EC0BF0A3
:100B9000A084040E0001D16F629062A8D2EF05F02C
:100BA000D4EF05F0DDEF05F060A8D9EF05F0DBEF3D
:100BB00005F0DDEF05F00FEC16F062ACE2EF05F0AA
:100BC000E4EF05F00FEF06F060ACE9EF05F0EBEFB6
:100BD00005F0F9EF05F0000E0E6E730E0D6E000EAF
:100BE0000F6E000E106E000E126E010E116E9DEC57
:100BF00011F0629CE0EC15F04550D8B402EF06F01D
:100C000004EF06F005EF06F045064550D8A40BEFBB
:100C100006F00DEF06F00FEF06F0AEEC10F062AA52
:100C200014EF06F016EF06F01FEF06F060AA1BEFB8
:100C300006F01DEF06F01FEF06F056EC14F062A26E
:100C400024EF06F026EF06F03DEF06F060A22BEF52
:100C500006F02DEF06F03DEF06F07F0E0E6E0D68EC
:100C6000000E0F6E000E106E000E126E010E116E51
:100C70009DEC11F0000E0F015F6F040E0001D161B9
:100C800044EF06F046EF06F049EF06F0A1949EEF20
:100C900006F060A64EEF06F050EF06F09DEF06F06E
:100CA000000E1F6E62A657EF06F059EF06F09DEF9B
:100CB00006F063CF4EF04E30E832E8320F0B476E4D
:100CC00062964EB466EF06F068EF06F072EF06F03B
:100CD000C60E4724D96EDA6A000EDA220001DF70F0
:100CE0007AEF06F0C80E4724D96EDA6A000EDA22CF
:100CF0000001DF704750D8A480EF06F082EF06F0C5
:100D000086EF06F063EC12F094EF06F0000E0E6E24
:100D1000720E0D6E4E0E0F6E000E106E000E126EE5
:100D2000000E116E9DEC11F01F2A030E1F649BEF45
:100D300006F09DEF06F052EF06F0A1941200000EAF
:100D40000001F06F20EE07F0E251D926E351DA22DC
:100D5000DFA6ADEF06F0AFEF06F0B0EF06F0F081E2
:100D600020EE07F0E251D926E351DA22DFA8BBEFEB
:100D700006F0BDEF06F0BEEF06F0F083E2C0D9FF4B
:100D8000E3C0DAFFDFAAC7EF06F0C9EF06F0CAEF4B
:100D900006F0F08B20EE07F0E251D926E351DA227B
:100DA000DFAAD5EF06F0D7EF06F0D8EF06F0F08512
:100DB000E2C0D9FFE3C0DAFFDFA8E1EF06F0E3EF1E
:100DC00006F0F5EF06F0F0A1E8EF06F0EAEF06F026
:100DD000ECEF06F0F091F089F0A5F1EF06F0F3EFFB
:100DE00006F0F5EF06F0F095F08DE4C0D9FFE5C010
:100DF000DAFFF0C0DFFFE2C0D9FFE3C0DAFFDFA80F
:100E000004EF07F006EF07F017EF07F0E2C0D9FF95
:100E1000E3C0DAFFDF50EF0BE2C0D9FFE3C0DAFF37
:100E2000DF6E000ECA6F010ECB6F1BEF07F0600E76
:100E3000CA6F000ECB6F000ED06F000EE96F000E70
:100E4000E86F000EEF6F000EEE6FEE51E225D96EE7
:100E5000EF51E321DA6EDF50EA6F000EED6F000E06
:100E6000EC6F060ED06137EF07F039EF07F059EF5E
:100E700007F0EAA13EEF07F040EF07F059EF07F067
:100E8000E851CA25D96EE951CB21DA6EDF50EB6FFC
:100E9000EB29D8B44EEF07F050EF07F059EF07F009
:100EA000D051E625D96E000EE721DA6EEBC0DFFFE8
:100EB000D02BE84BE92BD890EA33EC4BED2BEDBF70
:100EC0006BEF07F0ED5109E1080EEC5DD8A06BEF78
:100ED00007F06DEF07F031EF07F0EE4BEF2BEFBFB0
:100EE0007BEF07F0EF5109E1090EEE5DD8A07BEF33
:100EF00007F07DEF07F025EF07F012000201205107
:100F00001F0BE806D8B487EF07F089EF07F08BEFE7
:100F100007F040EF08F02451D8B491EF07F093EFB9
:100F200007F095EF07F040EF08F0060E2119D8A45E
:100F30009CEF07F09EEF07F0DBEF07F0C2EF07F042
:100F40005004D8A4A6EF07F0A8EF07F0DBEF07F0F6
:100F50008E0E0001B86F030EB96F000EBD6F090E43
:100F6000BC6FC00EBB6FDBEF07F0090E0001B86F5E
:100F7000030EB96F000EBD6F3F0EBC6FC00EBB6F8E
:100F8000DBEF07F02351036E046A0450000AD8B463
:100F9000CCEF07F0DBEF07F00350210AD8B4A0EF45
:100FA00007F0030AD8B4B5EF07F0010AD8B4DBEFB5
:100FB00007F0DBEF07F002012039E832030BE80607
:100FC000D8B4E5EF07F0E7EF07F01BEF08F040EFCC
:100FD00008F037EC16F040EF08F04D0E0001B86F46
:100FE000000EB96F000EBD6F010EBC6FC10EBB6F5E
:100FF00040EF08F0800E0001BB6F23C24DF04DC0E2
:1010000001F00201225146EC16F040EF08F04C0EC0
:101010000001B86F000EB96F000EBD6F010EBC6FFE
:10102000810EBB6F40EF08F0800E0001BB6F22C243
:101030004CF040EF08F02151036E046A0450000A9E
:10104000D8B425EF08F040EF08F00350010AD8B4F7
:1010500040EF08F0030AD8B4EDEF07F0010AD8B466
:1010600007EF08F00A0AD8B4E9EF07F0030AD8B48A
:10107000FAEF07F0010AD8B414EF08F040EF08F0D7
:101080001200E2C0ECF0E3C0EDF00001E651E71120
:10109000D8A44DEF08F04FEF08F051EF08F0FCEF47
:1010A00008F0ECC0D9FFEDC0DAFFE4C0DFFFE65185
:1010B000EC25E86FE751ED21E96FFF0EE825D96EC9
:1010C000FF0EE921DA6EE4C0DFFFE75107E1030E0E
:1010D000E65DD8B06EEF08F070EF08F072EF08F040
:1010E000FCEF08F020EE01F0EC51D926ED51DA22A8
:1010F000E4C0DFFF20EE02F0EC51D926ED51DA22F8
:10110000E4C0DFFFE651EC25E86FE751ED21E96F20
:10111000FE0EE825D96EFF0EE921DA6EE4C0DFFF8E
:10112000E651EC25E86FE751ED21E96FFD0EE8256A
:10113000D96EFF0EE921DA6EE4C0DFFFE75107E167
:10114000070EE65DD8B0A7EF08F0A9EF08F0ABEF07
:1011500008F0FCEF08F020EE03F0EC51D926ED5139
:10116000DA22E4C0DFFFE651EC25E86FE751ED211C
:10117000E96FFC0EE825D96EFF0EE921DA6EE4C0B6
:10118000DFFFE75107E1090EE65DD8B0CAEF08F0CE
:10119000CCEF08F0CEEF08F0FCEF08F0ECC0E8F080
:1011A000EDC0E9F0E81FE91FE84BE92B030EE81555
:1011B000EA6FEB6BEA51EC27EB51ED23EA51E65F66
:1011C000EB51E75BFC0EE617FF0EE717F3EF08F0B5
:1011D000ECC0D9FFEDC0DAFFE4C0DFFFE607D8A01E
:1011E000E707EC4BED2BE651E711D8A4FAEF08F036
:1011F000FCEF08F0E8EF08F0120001C00BF002C0AD
:101200000CF005500610D8A408EF09F00AEF09F019
:101210000CEF09F0B7EF09F00BC0D9FF0CC0DAFFF3
:1012200003C0DFFF05500B24076E06500C20086E2C
:10123000FF0E0724D96EFF0E0820DA6E03C0DFFF11
:10124000065007E1030E055CD8B029EF09F02BEF3B
:1012500009F02DEF09F0B7EF09F020EE01F00B5087
:10126000D9260C50DA2203C0DFFF20EE02F00B502B
:10127000D9260C50DA2203C0DFFF05500B24076E7D
:1012800006500C20086EFE0E0724D96EFF0E0820B3
:10129000DA6E03C0DFFF05500B24076E06500C20EA
:1012A000086EFD0E0724D96EFF0E0820DA6E03C00B
:1012B000DFFF065007E1070E055CD8B062EF09F0CA
:1012C00064EF09F066EF09F0B7EF09F020EE03F0E4
:1012D0000B50D9260C50DA2203C0DFFF05500B2437
:1012E000076E06500C20086EFC0E0724D96EFF0E08
:1012F0000820DA6E03C0DFFF065007E1090E055C27
:10130000D8B085EF09F087EF09F089EF09F0B7EF62
:1013100009F00BC007F00CC008F0071E081E074AB2
:10132000082A030E0714096E0A6A09500B260A5090
:101330000C220950055E0A50065AFC0E0516FF0ED7
:101340000616AEEF09F00BC0D9FF0CC0DAFF03C0E0
:10135000DFFF0506D8A006060B4A0C2A055006102A
:10136000D8A4B5EF09F0B7EF09F0A3EF09F0120028
:1013700020EE01F03950D9263A50DA22DF50026EC1
:1013800002500001B45D000EB559D8B0CAEF09F0A3
:10139000CCEF09F0CEEF09F0B4C002F00250B45F18
:1013A000000EB55B000E016EE5EF09F0280E01247A
:1013B000D96EDA6A020EDA22B0C0E1FFB1C0E2FFF4
:1013C000DFCFE7FFB04BB12B012A0250015CD8A060
:1013D000ECEF09F0EEEF09F0D6EF09F0B451B511DA
:1013E000D8B4F5EF09F0F7EF09F030EF0AF020EE8E
:1013F00001F03750D9263850DA22080EDF6E20EE81
:1014000002F03750D9263850DA22280EDE6E020E4E
:10141000DD6E39C0D9FF3AC0DAFFDFBC12EF0AF047
:1014200014EF0AF022EF0AF037C0D9FF38C0DAFF14
:10143000480EDF6E37C0D9FF38C0DAFF000EDB8EF2
:1014400072EF0AF037C0D9FF38C0DAFF080EDF6E3E
:1014500037C0D9FF38C0DAFF000EDB8E72EF0AF01A
:1014600020EE01F03750D9263850DA22080EDF6E10
:1014700020EE02F03750D9263850DA22200EDE6EE8
:10148000020EDD6E37C0D9FF38C0DAFF040EDF6E02
:1014900037C0D9FF38C0DAFF000EDB8EB651B71166
:1014A000D8B455EF0AF057EF0AF066EF0AF020EED5
:1014B000B6F002D866EF0AF00500FA6EDE50FD6E57
:1014C000DE50FE6EF850FF6EFA5012000001B39F1E
:1014D0004450D8A46EEF0AF070EF0AF072EF0AF0F1
:1014E000AEEC10F01200800E02012019D8A47BEFA0
:1014F0000AF07DEF0AF02CEF0BF0C00E0001BB6F7D
:1015000012EF0BF0C10E0001B86F030EB96F000EA1
:10151000BD6F120EBC6F2CEF0BF02251D8A493EFCD
:101520000AF095EF0AF0D6EF0AF02251020D070EED
:10153000F324F66E030EF420F76E0900F5CFB8F031
:101540000A00F5CFB9F0020E0001B825016E000EB9
:10155000B921026E01C0F6FF02C0F7FFF86A020E61
:10156000F76403D00800F55005D0F6CFE1FFF7CFC0
:10157000E2FFE7500001BC6F030EB825016E000EBC
:10158000B921026E01C0F6FF02C0F7FFF86A020E31
:10159000F76403D00800F55005D0F6CFE1FFF7CF90
:1015A000E2FFE7500001BD6F2CEF0BF0000E0001D1
:1015B000BB6F2CEF0BF0030E2261E1EF0AF0E3EFBB
:1015C0000AF008EF0BF02251020D010EF324F66E23
:1015D000030EF420F76E0900F5CFB8F00A00F5CF3E
:1015E000B9F0B8C0F6FFB9C0F7FFF86A020EF764A9
:1015F00003D00800F55005D0F6CFE1FFF7CFE2FFAA
:10160000E750016E01500001BC6FBD6B2CEF0BF079
:10161000000E0001BB6F2CEF0BF0000E0001BB6F42
:101620002CEF0BF002012351016E026A0250000AF6
:10163000D8B41DEF0BF00DEF0BF00150010AD8B438
:1016400082EF0AF0030AD8B48DEF0AF0010AD8B489
:10165000DBEF0AF00DEF0BF01200A094000E0F016B
:101660005F6F000E626E000E536F540E0001E26F4A
:101670000F0EE36F000EE56F000EE46F000EE76FD4
:10168000010EE66F41EC08F0160E616E9F0E0F0121
:101690005B6F7B0E606E000E0001EE6FEE51040D6D
:1016A000000EF324D96E020EF420DA6EDE6ADE6AD2
:1016B000DE6ADD6AEE2B070EEE6561EF0BF063EF7D
:1016C0000BF04EEF0BF0648C000E0F015C6F649812
:1016D000649C6296000E0001BB6F000EB36F000E9B
:1016E000B56F000EB46F62B678EF0BF07AEF0BF0C7
:1016F00069EF0BF0010E436E010E426E000E416E5B
:10170000000E406E000E486E000EEE6FEE51020DA0
:10171000BE0EF324D96E000EF420DA6E000EDE6EDB
:10172000000EDD6EEE51020DC20EF324D96E000ED6
:10173000F420DA6E000EDE6E000EDD6EC80EEE25B1
:10174000D96EDA6A000EDA22000EDF6EC60EEE25C2
:10175000D96EDA6A000EDA22000EDF6EEE2B010E71
:10176000EE65B5EF0BF0B7EF0BF086EF0BF0080E60
:10177000BE6F020EBF6F160E0F01536F020E0201F5
:10178000036F200E026F080E016F040E006F008FB2
:10179000000E506E000E316E000E326E000E336E73
:1017A000000E346E000E3F6E000E0001D16F12006D
:1017B000A094000E0F015F6F000E626E000E536F5B
:1017C000540E016E0F0E026E000E046E000E036EBC
:1017D000000E066E010E056EFDEC08F0160E616E31
:1017E0009F0E0F015B6F7B0E606E000E0D6E0D5035
:1017F000040D000EF324D96E020EF420DA6EDE6AB8
:10180000DE6ADE6ADD6A0D2A070E0D640AEF0CF04F
:101810000CEF0CF0F7EF0BF0648C000E0F015C6F17
:101820006498649C6296000E0001BB6F000EB36F5B
:10183000000EB56F000EB46F62B621EF0CF023EF0F
:101840000CF012EF0CF0010E436E010E426E000E12
:10185000416E000E406E000E486E000E0D6E0D5073
:10186000020DBE0EF324D96E000EF420DA6E000EC7
:10187000DE6E000EDD6E0D50020DC20EF324D96E29
:10188000000EF420DA6E000EDE6E000EDD6EC80E65
:101890000D24D96EDA6A000EDA22000EDF6EC60E53
:1018A0000D24D96EDA6A000EDA22000EDF6E0D2AE0
:1018B000010E0D645EEF0CF060EF0CF02FEF0CF0FA
:1018C000080E0001BE6F020EBF6F160E0F01536FA0
:1018D000020E0201036F200E026F080E016F040E4C
:1018E000006F008F000E506E000E316E000E326ED3
:1018F000000E336E000E346E000E3F6E000E0001BF
:10190000D16F12000001EA6F0001E251D8B48BEFF1
:101910000CF08DEF0CF09BEF0CF0EA51020DBE0EB7
:10192000F324D96E000EF420DA6EDECFEBF0DDCFBB
:10193000ECF0A7EF0CF0EA51020DC20EF324D96EC1
:10194000000EF420DA6EDECFEBF0DDCFECF0EB51E1
:10195000EC11D8A4AEEF0CF0B0EF0CF0B6EF0CF039
:10196000000EE26F000EE36F22EF0DF020EE02F0AA
:10197000EB51D926EC51DA22E3C0DEFFE4C0DDFFF3
:1019800020EE01F0EB51D926EC51DA22E5C0DFFF61
:10199000EBC0D9FFECC0DAFF400EDF16EBC0D9FF79
:1019A000ECC0DAFF000EDB86EBC0D9FFECC0DAFF3B
:1019B000000EDB8EE251D8B4E0EF0CF0E2EF0CF059
:1019C00001EF0DF0EA51020DBE0EF324D96E000EA8
:1019D000F420DA6EDECFE6F0DDCFE7F0040EE61994
:1019E000E86FE751E96FEA51020DBE0EF324D96E9C
:1019F000000EF420DA6EE8C0DEFFE9C0DDFF1EEF66
:101A00000DF0EA51020DC20EF324D96E000EF4203F
:101A1000DA6EDECFE6F0DDCFE7F0040EE619E86F10
:101A2000E751E96FEA51020DC20EF324D96E000EA0
:101A3000F420DA6EE8C0DEFFE9C0DDFFEBC0E2F0C3
:101A4000ECC0E3F0120064980001BBBF2AEF0DF078
:101A50002CEF0DF071EF0DF0B3AF31EF0DF033EF70
:101A60000DF045EF0DF0020E4A6E4050D8A43BEF4A
:101A70000DF03DEF0DF03FEF0DF0BFEC12F0000E5A
:101A8000426E000E436EC3EF0DF020EE01F03750B2
:101A9000D9263850DA22080EDF6E20EE02F03750D9
:101AA000D9263850DA22200EDE6E020EDD6E37C0E7
:101AB000D9FF38C0DAFF0C0EDF6E37C0D9FF38C04F
:101AC000DAFF000EDB8EBEC0D9FFBFC0DAFF040E06
:101AD000DF6EBEC0D9FFBFC0DAFF000EDB8EC3EFE2
:101AE0000DF0020120AF77EF0DF079EF0DF095EFDB
:101AF0000DF0010E4A6E4150D8A481EF0DF083EF36
:101B00000DF085EF0DF0BFEC12F0000E426E000EEE
:101B1000436E4450D8A48FEF0DF091EF0DF0C3EF5A
:101B20000DF0AEEC10F0C3EF0DF0020E4A6E20EE99
:101B300001F03750D9263850DA22080EDF6E20EE39
:101B400002F03750D9263850DA22200EDE6E020E0F
:101B5000DD6E37C0D9FF38C0DAFF040EDF6E37C044
:101B6000D9FF38C0DAFF000EDB8E000E426E000E89
:101B7000436E4450D8A4BFEF0DF0C1EF0DF0C3EF9A
:101B80000DF091EF0DF01200096E0150D8B4CBEFBB
:101B90000DF0CDEF0DF0DBEF0DF00950020DBE0E94
:101BA000F324D96E000EF420DA6EDECF0AF0DDCF1A
:101BB0000BF0E7EF0DF00950020DC20EF324D96EC1
:101BC000000EF420DA6EDECF0AF0DDCF0BF00A5003
:101BD0000B10D8A4EEEF0DF0F0EF0DF0F6EF0DF0D6
:101BE000000E016E000E026E62EF0EF020EE02F0AB
:101BF0000A50D9260B50DA2202C0DEFF03C0DDFFF7
:101C000020EE01F00A50D9260B50DA2204C0DFFF83
:101C10000AC0D9FF0BC0DAFF400EDF160AC0D9FF99
:101C20000BC0DAFF000EDB860AC0D9FF0BC0DAFF5B
:101C3000000EDB8E0150D8B420EF0EF022EF0EF034
:101C400041EF0EF00950020DBE0EF324D96E000EC6
:101C5000F420DA6EDECF05F0DDCF06F0040E0518B5
:101C6000076E0650086E0950020DBE0EF324D96EA1
:101C7000000EF420DA6E07C0DEFF08C0DDFF5EEF65
:101C80000EF00950020DC20EF324D96E000EF4209E
:101C9000DA6EDECF05F0DDCF06F0040E0518076E14
:101CA0000650086E0950020DC20EF324D96E000EC4
:101CB000F420DA6E07C0DEFF08C0DDFF0AC001F0C5
:101CC0000BC002F01200BEC0D9FFBFC0DAFF000196
:101CD000000EDFBC010E026E040EBE19BE6FBF51B6
:101CE000BF6F080ED119D8A478EF0EF07AEF0EF07E
:101CF0008FEF0EF0020122517F0B0F015C6F5C51E0
:101D0000D8B485EF0EF087EF0EF08CEF0EF0100ECA
:101D10000001D16F8FEF0EF0040E0001D16F4A0465
:101D2000D8A495EF0EF097EF0EF0DEEF0EF020EE58
:101D300002F0BE51D926BF51DA22280EDE6E020E05
:101D4000DD6E26EC10F0020E4B18D8A4AAEF0EF0B0
:101D5000ACEF0EF0BAEF0EF0BEC0D9FFBFC0DAFF95
:101D6000040EDF6EBEC0D9FFBFC0DAFF000EDB8EEF
:101D700001EF0FF00250D8A4C0EF0EF0C2EF0EF04A
:101D8000D0EF0EF0BEC0D9FFBFC0DAFF480EDF6E45
:101D9000BEC0D9FFBFC0DAFF000EDB8E01EF0FF02F
:101DA000BEC0D9FFBFC0DAFF080EDF6EBEC0D9FFCC
:101DB000BFC0DAFF000EDB8E01EF0FF0B3AFE3EF31
:101DC0000EF0E5EF0EF0FFEF0EF0B651B711D8B4FC
:101DD000ECEF0EF0EEEF0EF0FDEF0EF020EEB6F0B1
:101DE00002D8FDEF0EF00500FA6EDE50FD6EDE50FB
:101DF000FE6EF850FF6EFA5012000001B39F000E05
:101E00004A6E120002012039E832030B0009D8B4EF
:101E10000CEF0FF00EEF0FF05BEF0FF094EF0FF001
:101E20000001BB8F080ED16F94EF0FF073EC0AF036
:101E300094EF0FF027EC11F094EF0FF0500E00012B
:101E4000B86F000EB96FBB81010EBC6FBB8F94EFF2
:101E50000FF095EC0FF094EF0FF0D9EC03F094EF46
:101E60000FF04F0E24250001B86FB96B000EB92397
:101E7000BB81010EBC6FBB8F94EF0FF00001BB8FD5
:101E80004F0E02012425D96EDA6A000EDA2222C230
:101E9000DFFF94EF0FF0000E0E6E020E0D6E000EBF
:101EA0000F6E000E106E000E126E000E116E9DEC85
:101EB00011F094EF0FF021511C6E1D6A1D50000AA5
:101EC000D8B465EF0FF094EF0FF01C50000AD8B4AF
:101ED00029EF0FF0010AD8B42DEF0FF0020AD8B4A1
:101EE0002DEF0FF0060AD8B410EF0FF0030AD8B4A4
:101EF00016EF0FF0010AD8B44BEF0FF00F0AD8B469
:101F00001EEF0FF0010AD8B41AEF0FF0030AD8B48D
:101F100031EF0FF0010AD8B43EEF0FF0070AD8B442
:101F200094EF0FF094EF0FF01200000E0201286FF3
:101F3000000E296FFCEF0FF00001BB8F4904D8A4FD
:101F4000A4EF0FF0A6EF0FF016EF10F002012883B8
:101F500016EF10F00001BB8F16EF10F00001BB8FE1
:101F6000020124510F0B0009D8B4B9EF0FF0BBEFF9
:101F70000FF016EF10F024BFC0EF0FF0C2EF0FF01C
:101F8000D3EF0FF024510F0B016E0150020DC20E62
:101F9000F324D96E000EF420DA6EDECF03F0DDCF2D
:101FA00004F0E2EF0FF024510F0B016E0150020D0F
:101FB000BE0EF324D96E000EF420DA6EDECF03F0ED
:101FC000DDCF04F003C0D9FF04C0DAFFDFAEEBEFD2
:101FD0000FF0EDEF0FF016EF10F003C0D9FF04C0C3
:101FE000DAFFDFA4F6EF0FF0F8EF0FF016EF10F0C6
:101FF000010E286F16EF10F020511F0B016E026AC0
:102000000250000AD8B407EF10F016EF10F001509C
:10201000000AD8B49CEF0FF0010AD8B4AAEF0FF071
:10202000030AD8B4AEEF0FF016EF10F00001BBAF0B
:102030001CEF10F01EEF10F025EF10F0280EB86F17
:10204000020EB96FBB81020EBC6F1200080E016E4A
:102050000001BD5107E1080EBC5DD8B032EF10F0B1
:1020600034EF10F04CEF10F0BCC001F04B50D8A48E
:102070003CEF10F03EEF10F042EF10F0010E4B6E0F
:102080004CEF10F04B04D8A448EF10F04AEF10F0DA
:102090004CEF10F0020E4B6E0150BC5F000EBD5BAA
:1020A00020EE01F0BE51D926BF51DA2201C0DFFF78
:1020B000280E356E020E366EBBB161EF10F063EF85
:1020C00010F0A5EF10F080EF10F0B8C0F6FFB9C027
:1020D000F7FFF86A35C0D9FF36C0DAFF020EF764A1
:1020E00003D00800F55005D0F6CFE1FFF7CFE2FFAF
:1020F000E750DF6E0001B84BB92B354A362A01068E
:102100000150D8A486EF10F088EF10F065EF10F0C2
:10211000ADEF10F0B8C0F6FFB9C0F7FFF86A35C0F0
:10212000D9FF36C0DAFF020EF76403D00800F5507D
:1021300005D0F6CFE1FFF7CFE2FFE750DF6E0001F9
:10214000B84BB92B354A362A01060150D8A4ABEF5B
:1021500010F0ADEF10F08AEF10F012004350D8A449
:10216000B4EF10F0B6EF10F026EF11F0010E436E51
:102170004250D8A4BEEF10F0C0EF10F026EF11F0DF
:10218000010E426E020E4A18D8A4C9EF10F0CBEF30
:1021900010F0E2EF10F0000120EE01F0BE51D92660
:1021A000BF51DA22000EDF6EBEC0D9FFBFC0DAFF1A
:1021B000480EDF6EBEC0D9FFBFC0DAFF000EDB8E57
:1021C00026EF11F04A04D8A4E8EF10F0EAEF10F07F
:1021D00026EF11F0000E466E20EE01F03950D926A0
:1021E0003A50DA22080EDF6E20EE02F03950D9267E
:1021F0003A50DA22200EDE6E020EDD6E39C0D9FFB3
:102200003AC0DAFF040EDF6E39C0D9FF3AC0DAFFF8
:10221000000EDB8E010E466E20EE01F03750D926FF
:102220003850DA22080EDF6E20EE02F03750D92641
:102230003850DA22200EDE6E020EDD6E37C0D9FF76
:1022400038C0DAFF800EDF6E26EF11F012000001B9
:10225000BB8F540E016E0F0E026E000E046E000E48
:10226000036E000E066E010E056EFDEC08F0000E0A
:10227000016E020E026E000E046E000E036E000E62
:10228000066E200E056EFDEC08F0648C000E156ED7
:10229000C80E1524D96EDA6A000EDA22000EDF6E3F
:1022A000C60E1524D96EDA6A000EDA22000EDF6E31
:1022B000152A010E15645FEF11F061EF11F048EF80
:1022C00011F04F0E016E000E026E000E046E000E35
:1022D000036E000E066E010E056EFDEC08F0649CA8
:1022E000080E0001BE6F020EBF6F000E396E020EA7
:1022F0003A6E39C037F03AC038F022C250F0505030
:10230000D8A485EF11F087EF11F08BEF11F0100ECC
:10231000D16F9CEF11F0000E0E6E010E0D6E500E7F
:102320000F6E000E106E000E126E010E116E9DECFF
:1023300011F0200E0001D16F1200CCEF11F084ECEF
:1023400016F03D2809E17F0E3E18D8B4AAEF11F02F
:10235000ACEF11F0B0EF11F03D4A3E2A05EF12F05C
:10236000000E3E6E000E3D6E05EF12F084EC16F08E
:10237000010EC5EC15F005EF12F084EC16F0020E1C
:10238000C5EC15F005EF12F024EC14F005EF12F097
:102390007EEC07F005EF12F00DC013F00EC014F044
:1023A0001450000AD8B4DBEF11F07F0AD8B4FEEF66
:1023B00011F005EF12F01350010AD8B4C4EF11F078
:1023C000030AD8B405EF12F0010AD8B4C8EF11F02F
:1023D000060AD8B405EF12F0770AD8B405EF12F068
:1023E000010AD8B49FEF11F0070AD8B4BDEF11F07D
:1023F000010AD8B4B6EF11F005EF12F01350FF0A3E
:10240000D8B405EF12F005EF12F01200040E00012F
:10241000F16F1C0EE82EFED7F12FFCD700F060EC18
:1024200016F0000E0001F46F000EF36F82500F0BD8
:10243000F26F7AEC16F08238F00BF00B0001F21319
:10244000D20EF325D96E000EF421DA6EF2C0DFFF52
:1024500075EC16F00001F34BF42BF4BF39EF12F0DA
:10246000F45109E1090EF35DD8A039EF12F03BEF0A
:1024700012F016EF12F0000EF66F000EF56FDB0E85
:10248000F525D96E000EF621DA6E000EDF6EF54BE3
:10249000F62BF65109E1060EF55DD8A052EF12F0C9
:1024A00054EF12F03FEF12F0D20EE26F000EE36F26
:1024B000E10EE46F000EE56FDB0EE66F000EE76FD6
:1024C0009FEC06F012002D0E456E4EC01EF0FD0E64
:1024D0001E16D8A46EEF12F070EF12F0B2EF12F0E9
:1024E0004EC01EF0D8901E323F0E1E161E50040D18
:1024F000000EF324396E020EF4203A6E39C037F024
:102500003AC038F0040E3718376E3850386E39C07C
:10251000D9FF3AC0DAFFDF30E8320F0B0D0AD8A43A
:1025200094EF12F096EF12F0AEEF12F0200E016E63
:10253000020E026E20EE02F03950D9263A50DA220D
:10254000DECF03F0DDCF04F0000E066E080E056E40
:1025500087EC14F06FEC13F0BEEF12F0B7EC13F051
:10256000BEEF12F04E50FD0B040AD8A4BAEF12F0E1
:10257000BCEF12F0BEEF12F063EC0EF01200000E92
:10258000416E000E406E020E4A18D8A4CAEF12F037
:10259000CCEF12F0ECEF12F020EE01F03750D9261C
:1025A0003850DA22080EDF6E20EE02F03750D926BE
:1025B0003850DA22280EDE6E020EDD6E37C0D9FFEB
:1025C00038C0DAFF480EDF6E37C0D9FF38C0DAFFF7
:1025D000000EDB8E18EF13F00001BC510201265DE6
:1025E0000001BD5102012759D8B0F9EF12F0FBEFFD
:1025F00012F0FFEF12F026C2BCF027C2BDF026ECAD
:1026000010F0000120EE02F0BE51D926BF51DA22AF
:10261000280EDE6E020EDD6EBEC0D9FFBFC0DAFF2F
:10262000480EDF6EBEC0D9FFBFC0DAFF000EDB8EE2
:102630001200066E000E076E020E086E0150026E4A
:10264000036AD890023603360650046E056AD890A5
:1026500004360536D8900436053602500426035059
:102660000522D89004360536D89004360536045035
:1026700007260550082207C0D9FF08C0DAFFDF9EF1
:102680000150D8A446EF13F048EF13F056EF13F0C3
:102690000650020DC20EF324D96E000EF420DA6E3D
:1026A00007C0DEFF08C0DDFF62EF13F00650020D29
:1026B000BE0EF324D96E000EF420DA6E07C0DEFFE2
:1026C00008C0DDFF07C0D9FF08C0DAFFDF9C20EE9D
:1026D00004F00750D9260850DA22DF8C1200000ED1
:1026E0004B6E000E446E000E416E000E406E000EEA
:1026F000466E000E4A6EBEC0D9FFBFC0DAFF7F0E25
:10270000DF16040E0001BE19BE6FBF51BF6FBEC001
:10271000D9FFBFC0DAFF7F0EDF16040EBE19BE6FF1
:10272000BF51BF6F37C0D9FF38C0DAFF7F0EDF1649
:10273000000EBB6F000EBD6F000EBC6F000EB36FBE
:10274000000EB56F000EB46F02EC0FF0000E0E6EAF
:10275000030E0D6E000E0F6E000E106E000E126E48
:10276000000E116E9DEC11F023EC0DF01200020E24
:102770004A18D8A4BEEF13F0C0EF13F0C4EF13F063
:10278000B8EC09F0F0EF13F0000E4A6E4650D8A4F2
:10279000CCEF13F0CEEF13F0EEEF13F020EE01F0DC
:1027A0003750D9263850DA22080EDF6E20EE02F0BC
:1027B0003750D9263850DA22200EDE6E020EDD6E3A
:1027C00037C0D9FF38C0DAFF0C0EDF6E37C0D9FF33
:1027D00038C0DAFF000EDB8EF0EF13F0000E466E0D
:1027E00012003E0EF66E2A0EF76E000EF86E01EE27
:1027F00000F010EE48F00900F5CFEEFFE550E15093
:10280000FAE1F60EF66E290EF76E000EF86E00EE87
:1028100060F010EE48F00900F5CFEEFFE550E15012
:10282000FAE100EEA8F03A0EEE6AE806FDE100EEED
:102830002CF0250EEE6AE806FDE151905192000E53
:10284000F86E000125EF16F0000E2C6E000E2D6EB6
:10285000040E306E010E0001CF6FF40ECE6F35EF17
:1028600014F03DC03BF03EC03CF03D503B1807E14A
:102870003E503C18D8A43FEF14F041EF14F031EF74
:1028800014F01E0E096E010ED5EC14F0000E016E50
:10289000480E026E020E036E010E046E010EC4ECB1
:1028A0000DF001C02EF002C02FF012000F0153A155
:1028B0005CEF14F05EEF14F085EF14F039C0D9FF2F
:1028C0003AC0DAFF800EDE18D8A469EF14F06BEF7F
:1028D00014F084EF14F0BEC0D9FFBFC0DAFF840E3D
:1028E000DE18D8A476EF14F078EF14F084EF14F02B
:1028F00039C0D9FF3AC0DAFF0C0EDF6E39C0D9FFFC
:102900003AC0DAFF000EDB8E5391629A120003C0C8
:1029100009F004C00AF001C007F002C008F0A1EFFE
:1029200014F009C0D9FF0AC0DAFFDF500B6E094A64
:102930000A2A07C0D9FF08C0DAFF0BC0DFFF074A29
:10294000082A0506D8A00606052806E10628D8A408
:10295000ACEF14F0AEEF14F091EF14F012000001A0
:10296000D151D8A4B6EF14F0B8EF14F0D4EF14F0AE
:10297000000E646E000E606E160E616E9F0E0F01EB
:102980005B6F7B0E606ED08EA284A084F28ECAEF45
:1029900014F0648664A6CFEF14F0D1EF14F0C9EF01
:1029A00014F0010E0001D16F12000C6E09A4DBEFD0
:1029B00014F0DDEF14F0E2EF14F0000E016E0C5095
:1029C00019EC13F009A2E7EF14F0E9EF14F0EEEFC1
:1029D00014F0010E016E0C5019EC13F0530E0C2480
:1029E0000A6E0B6A0F0E0B220AC0D9FF0BC0DAFF6A
:1029F00009C0DFFF12004128303235FF892A402FFD
:102A0000343387382D2E3F120F0E373613273E0CE6
:102A1000180D101126253D1C0A0B051924233C17FF
:102A20001507090622213B1A16041B1D08203A2B04
:102A300014FFFFFF1E1F39524F50512C4C49FFFF0E
:102A4000FFFFFFFFFF3548FFFFFFFF65FFFF47FF69
:102A5000FFFFFFFFFFFF46FFFFFFFFFFFFFF45FFF9
:102A6000FFFFFFFFFFFF44FFFFFFFFFFFFFF43FFED
:102A7000FFFFE339FFFF4229FFFFFFFFFFFF8B4B03
:102A80004D4A4E2C8A88020148A349EF15F04BEFBE
:102A900015F04EEF15F08B8A4FEF15F08B9A48A189
:102AA00054EF15F056EF15F059EF15F08B8E5AEFE5
:102AB00015F08B9E48A55FEF15F061EF15F064EF00
:102AC00015F08B8C65EF15F08B9C1200020148A36A
:102AD0006CEF15F06EEF15F071EF15F08B8A72EF59
:102AE00015F08B9A48A177EF15F079EF15F07CEF90
:102AF00015F08B8E7DEF15F08B9E48A582EF15F0BB
:102B000084EF15F087EF15F08B8C88EF15F08B9C18
:102B10001200000E486E000E0E6E740E0D6E000E4A
:102B20000F6E000E106E000E126E000E116E9DECF8
:102B300011F0649260949EEF15F0629462B4A3EF7A
:102B400015F0A5EF15F09DEF15F0000E3F6E120089
:102B50000001E46F0001E451E26FE36BE351000A0E
:102B6000D8B4B5EF15F0C4EF15F0E251000AD8B4AF
:102B7000C4EF15F0010AD8B4C4EF15F0030AD8B4B5
:102B8000C4EF15F0C4EF15F01200036E0350016E90
:102B9000026A0250000AD8B4D0EF15F0DFEF15F04A
:102BA0000150000AD8B4DFEF15F0010AD8B4DFEF06
:102BB00015F0030AD8B4DFEF15F0DFEF15F01200BF
:102BC000010E3126000E3222332234224850D8A47E
:102BD000ECEF15F0EEEF15F0F8EF15F03F2A3F504F
:102BE000D8A4F5EF15F0F7EF15F0F8EF15F03F6802
:102BF0001200000E896E000E8A6E000E8B6E300E73
:102C0000926E100E936E1F0E946E000E7E6E000E6E
:102C10007F6EE00E786E000E776EF18E120060848B
:102C200062986482010E486E000E3F6E000E0E6EBA
:102C3000750E0D6E000E0F6E000E106E000E126EF1
:102C4000000E116E9DEC11F01200000EA8EC15F0B4
:102C500070EC16F02DEC0BF0AFEC14F08A8E06EC55
:102C600012F0ECEC01F02FEF16F039EF00F0280E27
:102C70000001B06F020EB16F000EB56F080EB46F99
:102C8000FE0EB66F2C0EB76FB38F1200026E02509D
:102C9000D8A44DEF16F04FEF16F053EF16F001C029
:102CA000CEF00001CF6B120082B859EF16F05BEF47
:102CB00016F05EEF16F0010E5FEF16F0000E120038
:102CC0008A8A280EE82EFED78A9AC80EE82EFED7EA
:102CD0001200300ED36E040ED26E000E9B6E1200E8
:102CE000F9EC15F069EC16F012008A9CC80EE82E7B
:102CF000FED712008A8CC80EE82EFED7120028C21A
:0A2D000048F266EC15F01200120014
:020000040020DA
:08000000FFFFFFFFFFFFFFFF00
:020000040030CA
:0E0000000032011EFF0081FF03C003E0034039
:00000001FF
