:0400000039EF00F0E4
:100008005482FACF20F0FBCF21F0E1CF22F0E2CFEB
:1000180023F0D9CF24F0DACF25F0F3CF26F0F4CFB0
:1000280027F0F6CF28F0F7CF29F0F8CF2AF0F5CF50
:100038002BF087EC05F02BC0F5FF2AC0F8FF29C08C
:10004800F7FF28C0F6FF27C0F4FF26C0F3FF25C03E
:10005800DAFF24C0D9FF23C0E2FF22C0E1FF21C09C
:0E006800FBFF20C0FAFF54921100E5EF13F0E9
:1003000000D3034803A5037C0305010906A10105E9
:100310000719E029E7150025017501950881029567
:1003200001750881039505750105081901290591D5
:10033000029501750391039506750815002565055D
:1003400007190029658100C034034D00690063006E
:1003500072006F00630068006900700020005400A4
:100360006500630068006E006F006C006F0067003E
:100370007900200049006E0063002E000902290068
:10038000010100C03209040000020301010009213B
:1003900011010001223F0007058103080001070544
:1003A00001030800011C034B006500790062006F27
:1003B000006100720064002000440065006D006F61
:1003C000001201000200000008D8045500010001DD
:1003D0000200010403090400200E4E60F2EF01F058
:1003E000F4EF01F0F6EF01F0D8EF03F064A2FBEFB9
:1003F00001F0FDEF01F005EF02F046EC16F0D8EF4A
:1004000003F039C0C6F03AC0C7F039500001C61930
:1004100007E13A50C719D8A410EF02F012EF02F02A
:1004200001EF02F03750C65DF06F3850C759F16FD9
:10043000F1BF1FEF02F01DEF02F02BEF02F037507B
:10044000C65DEB6F3850C759EC6FFF0EEB25F06FB0
:100450007F0EEC21F16FF1BF37EF02F0890EF05DF6
:10046000130EF159D8A037EF02F039EF02F03FEF49
:1004700002F0780EC625376EEC0EC721386E2C5070
:100480002D10D8B446EF02F048EF02F053EF02F01F
:100490002CC0D9FF2DC0DAFFDFBE51EF02F053EFC1
:1004A00002F0B2EF03F0400EDF6F020EE06F000EBD
:1004B000E26F000EE16F000EE46F080EE36F3EEC9A
:1004C00008F0000E0001EE6F000EED6FCE51D8B4B3
:1004D0006CEF02F06EEF02F04EEF03F0DEB173EF5F
:1004E00002F077EF02F0EB6BEB2B79EF02F00001FB
:1004F000EB6B020140510001EB19FE0BEB190201FD
:10050000406F0001DEB387EF02F08BEF02F0EB6B80
:10051000EB2B8DEF02F00001EB6BEB47020140513A
:100520000001EB19FD0BEB190201406F0001DEB574
:100530009CEF02F0A0EF02F0EB6BEB2BA2EF02F0CE
:100540000001EB6BEB47EB47020140510001EB1957
:10055000FB0BEB190201406F0001DEB7B2EF02F0B6
:10056000B6EF02F0EB6BEB2BB8EF02F00001EB6B98
:10057000EB47EB47EB47020140510001EB19F70B4A
:10058000EB190201406F0001DEB9C9EF02F0CDEFB7
:1005900002F0EB6BEB2BCFEF02F00001EB6BEB3BD0
:1005A000020140510001EB19EF0BEB190201406F02
:1005B0000001DEBBDEEF02F0E2EF02F0EB6BEB2BB3
:1005C000E4EF02F00001EB6BEB3BEB470201405123
:1005D0000001EB19DF0BEB190201406F0001DEBDDA
:1005E000F4EF02F0F8EF02F0EB6BEB2BFAEF02F016
:1005F0000001EB6BEB3BEB47EB4702014051000185
:10060000EB19BF0BEB190201406F0001DEBF0BEFCE
:1006100003F00FEF03F0EB6BEB2B11EF03F0000196
:10062000EB6BEB33EB33020140510001EB197F0B15
:10063000EB190201406F000E0001F46F000EF36F22
:10064000D80EF325D96E000EF421DA6EDF50D8B43F
:100650002CEF03F02EEF03F03EEF03F0D80EF3255E
:10066000D96E000EF421DA6E420EF325E16E020E11
:10067000F421E26EDFCFE7FFED4BEE2BF34BF42BD3
:10068000F4BF4CEF03F0F45109E1060EF35DD8A07E
:100690004CEF03F04EEF03F020EF03F0000EEF6F8E
:1006A000000EF26F400EF225D96EDA6A020EDA22DF
:1006B000A80EF225E16EE26A000EE222DE50E61894
:1006C000D8B465EF03F067EF03F06BEF03F0010EB2
:1006D000EF6F74EF03F0F22B070EF26572EF03F089
:1006E00074EF03F052EF03F0C851C911D8B47BEF97
:1006F00003F07DEF03F08EEF03F0C851F05DF15190
:10070000800AEB6FC951800AEB59D8A08AEF03F039
:100710008CEF03F08EEF03F0010EEF6FEF05D8A41E
:1007200094EF03F096EF03F0B2EF03F022EE40F007
:1007300010EEA8F0070EDBCFE3FFE806FCE2010EA7
:10074000DF6F400EE06F020EE16F080EE26F010EE8
:100750007DEC0CF0DFC02CF0E0C02DF0C6C037F00F
:10076000C7C038F02E502F10D8B4B9EF03F0BBEF4C
:1007700003F0C6EF03F02EC0D9FF2FC0DAFFDFBEB3
:10078000C4EF03F0C6EF03F0D8EF03F035EC15F03B
:10079000000E0001DF6F480EE06F020EE16F010EE8
:1007A000E26F010E7DEC0CF0DFC02EF0E0C02FF008
:1007B000120002012205D8A4E0EF03F0E2EF03F0FB
:1007C000FEEF03F020511F0B0009D8A4EAEF03F05D
:1007D000ECEF03F0FEEF03F00001BB8F030E02010C
:1007E0002119D8A4F6EF03F0F8EF03F0FCEF03F0C3
:1007F000010E4B6EFEEF03F0000E4B6E2251D8A49B
:1008000004EF04F006EF04F086EF05F020511F0B13
:10081000020AD8A40EEF04F010EF04F086EF05F002
:1008200024510F0B0009D8B418EF04F01AEF04F0AC
:1008300086EF05F024510F0B156E020E156023EFA5
:1008400004F025EF04F086EF05F0200E4E18D8A432
:100850002CEF04F02EEF04F086EF05F00001BB8FC3
:10086000020124BF36EF04F038EF04F055EF04F036
:1008700024510F0B156E1550020DC20EF324D96EC4
:10088000000EF420DA6EDECF1AF0DDCF1BF024511B
:100890000F0B156E166ACA0E1524D96E000E16209F
:1008A000DA6EDF50196E70EF04F024510F0B156EE5
:1008B0001550020DBE0EF324D96E000EF420DA6E30
:1008C000DECF1AF0DDCF1BF024510F0B156E166A28
:1008D000CC0E1524D96E000E1620DA6EDF50196E7C
:1008E00019B075EF04F077EF04F07FEF04F0FB0E22
:1008F0001A141A6EFF0E1B141B6E84EF04F0040E04
:100900001A101A6E1B501B6E24BF89EF04F08BEF78
:1009100004F09CEF04F024510F0B156E1550020DDE
:10092000C20EF324D96E000EF420DA6E1AC0DEFF78
:100930001BC0DDFFABEF04F024510F0B156E1550FB
:10094000020DBE0EF324D96E000EF420DA6E1AC02A
:10095000DEFF1BC0DDFF030E2119D8A4B2EF04F0A7
:10096000B4EF04F0EEEF04F01AC0D9FF1BC0DAFFB9
:10097000DFAEBDEF04F0BFEF04F0E0EF04F024BF02
:10098000C4EF04F0C6EF04F0D4EF04F024510F0BD1
:10099000156E166ACA0E1524D96E000E1620DA6E70
:1009A0000001DF82E0EF04F024510F0B156E166A90
:1009B000CC0E1524D96E000E1620DA6E0001DF82EF
:1009C0001AC0D9FF1BC0DAFF000EDB841AC0D9FFA2
:1009D0001BC0DAFF000EDB8E86EF05F0040E1A183E
:1009E0001A6E1B501B6E1AC0D9FF1BC0DAFFDFAE98
:1009F000FCEF04F0FEEF04F01AEF05F01AC0D9FF87
:100A00001BC0DAFF7F0EDF161AC0D9FF1BC0DAFF4A
:100A1000000EDB8C000E0E6E050E0D6E1AC00FF070
:100A20001BC010F0000E126E020E116E97EC11F04A
:100A300020EF05F01AC0D9FF1BC0DAFF000EDB8CD7
:100A4000040E1A181A6E1B501B6E19B22AEF05F00D
:100A50002CEF05F037EF05F01AC0D9FF1BC0DAFF05
:100A6000DFAE35EF05F037EF05F06FEF05F002016F
:100A700024BF3DEF05F03FEF05F04DEF05F02451A9
:100A80000F0B156E166ACA0E1524D96E000E1620AD
:100A9000DA6E0001DF9259EF05F024510F0B156E4D
:100AA000166ACC0E1524D96E000E1620DA6E0001DF
:100AB000DF921AC0D9FF1BC0DAFF3B0EDF16000E13
:100AC0000E6E050E0D6E1AC00FF01BC010F0000E5A
:100AD000126E020E116E97EC11F075EF05F01AC050
:100AE000D9FF1BC0DAFF3B0EDF16020124510F0BAA
:100AF000156E166A530E1524176E0F0E1620186EFB
:100B000017C0D9FF18C0DAFFFE0EDF1612004E0420
:100B1000D8A48DEF05F08FEF05F09CEF05F064BAD7
:100B200094EF05F096EF05F09CEF05F0000E626E75
:100B300060806088020E4E6E62A4A1EF05F0A3EF04
:100B400005F0ADEF05F060A4A8EF05F0AAEF05F001
:100B5000ADEF05F062947BEC15F064A2B2EF05F006
:100B6000B4EF05F0B7EF05F0A1949BEF06F062A09B
:100B7000BCEF05F0BEEF05F0CBEF05F060A0C3EFD2
:100B800005F0C5EF05F0CBEF05F0D4EC0BF0A08439
:100B9000040E4E6E629062A8D0EF05F0D2EF05F021
:100BA000DBEF05F060A8D7EF05F0D9EF05F0DBEF3C
:100BB00005F001EC16F062ACE0EF05F0E2EF05F0B5
:100BC0000DEF06F060ACE7EF05F0E9EF05F0F7EFA9
:100BD00005F0000E0E6E730E0D6E000E0F6E000E01
:100BE000106E000E126E010E116E97EC11F0629CE9
:100BF000D2EC15F04750D8B400EF06F002EF06F043
:100C000003EF06F047064750D8A409EF06F00BEFB4
:100C100006F00DEF06F0A9EC10F062AA12EF06F054
:100C200014EF06F01DEF06F060AA19EF06F01BEFB7
:100C300006F01DEF06F04AEC14F062A222EF06F077
:100C400024EF06F03BEF06F060A229EF06F02BEF51
:100C500006F03BEF06F07F0E0E6E0D68000E0F6E75
:100C6000000E106E000E126E010E116E97EC11F058
:100C7000000E0F015F6F040E4E6041EF06F043EF70
:100C800006F046EF06F0A1949BEF06F060A64BEF4E
:100C900006F04DEF06F09AEF06F0000E1F6E62A60A
:100CA00054EF06F056EF06F09AEF06F063CF51F0DE
:100CB0005130E832E8320F0B496E629651B463EF5F
:100CC00006F065EF06F06FEF06F0CA0E4924D96E04
:100CD000DA6A000EDA220001DF7077EF06F0CC0E40
:100CE0004924D96EDA6A000EDA220001DF70495019
:100CF000D8A47DEF06F07FEF06F083EF06F000EC5E
:100D000012F091EF06F0000E0E6E720E0D6E510E87
:100D10000F6E000E106E000E126E000E116E97EC2C
:100D200011F01F2A030E1F6498EF06F09AEF06F0E9
:100D30004FEF06F0A1941200000E0001ED6F20EEBF
:100D400007F0DF51D926E051DA22DFA6AAEF06F03C
:100D5000ACEF06F0ADEF06F0ED8120EE07F0DF51CD
:100D6000D926E051DA22DFA8B8EF06F0BAEF06F094
:100D7000BBEF06F0ED83DFC0D9FFE0C0DAFFDFAAEA
:100D8000C4EF06F0C6EF06F0C7EF06F0ED8B20EEDD
:100D900007F0DF51D926E051DA22DFAAD2EF06F0C0
:100DA000D4EF06F0D5EF06F0ED85DFC0D9FFE0C047
:100DB000DAFFDFA8DEEF06F0E0EF06F0F2EF06F074
:100DC000EDA1E5EF06F0E7EF06F0E9EF06F0ED91B3
:100DD000ED89EDA5EEEF06F0F0EF06F0F2EF06F08C
:100DE000ED95ED8DE1C0D9FFE2C0DAFFEDC0DFFF88
:100DF000DFC0D9FFE0C0DAFFDFA801EF07F003EFA3
:100E000007F014EF07F0DFC0D9FFE0C0DAFFDF50D2
:100E1000EF0BDFC0D9FFE0C0DAFFDF6E000E356EEA
:100E2000010E366E18EF07F0600E356E000E366E4E
:100E3000000ECE6F000EE66F000EE56F000EEC6F39
:100E4000000EEB6FEB51DF25D96EEC51E021DA6E2D
:100E5000DF50E76F000EEA6F000EE96F060ECE61FD
:100E600034EF07F036EF07F056EF07F0E7A13BEF5E
:100E700007F03DEF07F056EF07F0E5513524D96E46
:100E8000E6513620DA6EDF50E86FE829D8B44BEF30
:100E900007F04DEF07F056EF07F0CE51E325D96E7E
:100EA000000EE421DA6EE8C0DFFFCE2BE54BE62B27
:100EB000D890E733E94BEA2BEABF68EF07F0EA5135
:100EC00009E1080EE95DD8A068EF07F06AEF07F0C6
:100ED0002EEF07F0EB4BEC2BECBF78EF07F0EC516B
:100EE00009E1090EEB5DD8A078EF07F07AEF07F083
:100EF00022EF07F01200020120511F0BE806D8B4C0
:100F000084EF07F086EF07F088EF07F03DEF08F079
:100F10002451D8B48EEF07F090EF07F092EF07F06E
:100F20003DEF08F0060E2119D8A499EF07F09BEFCA
:100F300007F0D8EF07F0BFEF07F05304D8A4A3EFF2
:100F400007F0A5EF07F0D8EF07F08E0E0001B86F9D
:100F5000030EB96F000EBD6F090EBC6FC00EBB6FE4
:100F6000D8EF07F0090E0001B86F030EB96F000E3D
:100F7000BD6F3F0EBC6FC00EBB6FD8EF07F02351A3
:100F8000036E046A0450000AD8B4C9EF07F0D8EF22
:100F900007F00350210AD8B49DEF07F0030AD8B434
:100FA000B2EF07F0010AD8B4D8EF07F0D8EF07F096
:100FB00002012039E832030BE806D8B4E2EF07F06B
:100FC000E4EF07F018EF08F03DEF08F029EC16F019
:100FD0003DEF08F0500E0001B86F000EB96F000E23
:100FE000BD6F010EBC6FC10EBB6F3DEF08F0800EF0
:100FF0000001BB6F23C250F050C001F0020122512A
:1010000038EC16F03DEF08F04F0E0001B86F000EFF
:10101000B96F000EBD6F010EBC6F810EBB6F3DEF4F
:1010200008F0800E0001BB6F22C24FF03DEF08F0C8
:101030002151036E046A0450000AD8B422EF08F06C
:101040003DEF08F00350010AD8B43DEF08F0030A61
:10105000D8B4EAEF07F0010AD8B404EF08F00A0A9E
:10106000D8B4E6EF07F0030AD8B4F7EF07F0010AA7
:10107000D8B411EF08F03DEF08F01200DFC0E9F03E
:10108000E0C0EAF00001E351E411D8A44AEF08F00F
:101090004CEF08F04EEF08F0F9EF08F0E9C0D9FF87
:1010A000EAC0DAFFE1C0DFFFE351E925E56FE45173
:1010B000EA21E66FFF0EE525D96EFF0EE621DA6E16
:1010C000E1C0DFFFE45107E1030EE35DD8B06BEF51
:1010D00008F06DEF08F06FEF08F0F9EF08F020EE80
:1010E00001F0E951D926EA51DA22E1C0DFFF20EE12
:1010F00002F0E951D926EA51DA22E1C0DFFFE351DB
:10110000E925E56FE451EA21E66FFE0EE525D96E8B
:10111000FF0EE621DA6EE1C0DFFFE351E925E56F5E
:10112000E451EA21E66FFD0EE525D96EFF0EE621BA
:10113000DA6EE1C0DFFFE45107E1070EE35DD8B0EE
:10114000A4EF08F0A6EF08F0A8EF08F0F9EF08F018
:1011500020EE03F0E951D926EA51DA22E1C0DFFF9F
:10116000E351E925E56FE451EA21E66FFC0EE52540
:10117000D96EFF0EE621DA6EE1C0DFFFE45107E130
:10118000090EE35DD8B0C7EF08F0C9EF08F0CBEF68
:1011900008F0F9EF08F0E9C0E5F0EAC0E6F0E51F75
:1011A000E61FE54BE62B030EE515E76FE86BE7510D
:1011B000E927E851EA23E751E35FE851E45BFC0EDD
:1011C000E317FF0EE417F0EF08F0E9C0D9FFEAC01B
:1011D000DAFFE1C0DFFFE307D8A0E407E94BEA2B21
:1011E000E351E411D8A4F7EF08F0F9EF08F0E5EFC8
:1011F00008F0120001C00BF002C00CF00550061000
:10120000D8A405EF09F007EF09F009EF09F0B4EFF2
:1012100009F00BC0D9FF0CC0DAFF03C0DFFF055097
:101220000B24076E06500C20086EFF0E0724D96EA3
:10123000FF0E0820DA6E03C0DFFF065007E1030E41
:10124000055CD8B026EF09F028EF09F02AEF09F085
:10125000B4EF09F020EE01F00B50D9260C50DA2241
:1012600003C0DFFF20EE02F00B50D9260C50DA222B
:1012700003C0DFFF05500B24076E06500C20086EDC
:10128000FE0E0724D96EFF0E0820DA6E03C0DFFFC2
:1012900005500B24076E06500C20086EFD0E072427
:1012A000D96EFF0E0820DA6E03C0DFFF065007E19B
:1012B000070E055CD8B05FEF09F061EF09F063EF4E
:1012C00009F0B4EF09F020EE03F00B50D9260C50D2
:1012D000DA2203C0DFFF05500B24076E06500C20F6
:1012E000086EFC0E0724D96EFF0E0820DA6E03C0CC
:1012F000DFFF065007E1090E055CD8B082EF09F068
:1013000084EF09F086EF09F0B4EF09F00BC007F0A5
:101310000CC008F0071E081E074A082A030E07140F
:10132000096E0A6A09500B260A500C220950055E04
:101330000A50065AFC0E0516FF0E0616ABEF09F012
:101340000BC0D9FF0CC0DAFF03C0DFFF0506D8A031
:1013500006060B4A0C2A05500610D8A4B2EF09F075
:10136000B4EF09F0A0EF09F0120020EE01F03F50B9
:10137000D9264050DA22DF50026E02500001B45DDF
:10138000000EB559D8B0C7EF09F0C9EF09F0CBEF9F
:1013900009F0B4C002F00250B45F000EB55B000E5D
:1013A000016EE2EF09F0280E0124D96EDA6A020E0E
:1013B000DA22B0C0E1FFB1C0E2FFDFCFE7FFB04B00
:1013C000B12B012A0250015CD8A0E9EF09F0EBEF44
:1013D00009F0D3EF09F0B451B511D8B4F2EF09F028
:1013E000F4EF09F02DEF0AF020EE01F03D50D92680
:1013F0003E50DA22080EDF6E20EE02F03D50D92674
:101400003E50DA22280EDE6E020EDD6E3FC0D9FF9E
:1014100040C0DAFFDFBC0FEF0AF011EF0AF01FEF58
:101420000AF03DC0D9FF3EC0DAFF480EDF6E3DC076
:10143000D9FF3EC0DAFF000EDB8E6FEF0AF03DC031
:10144000D9FF3EC0DAFF080EDF6E3DC0D9FF3EC0B7
:10145000DAFF000EDB8E6FEF0AF020EE01F03D5058
:10146000D9263E50DA22080EDF6E20EE02F03D5003
:10147000D9263E50DA22200EDE6E020EDD6E3DC011
:10148000D9FF3EC0DAFF040EDF6E3DC0D9FF3EC07B
:10149000DAFF000EDB8EB651B711D8B452EF0AF066
:1014A00054EF0AF063EF0AF020EEB6F002D863EFD3
:1014B0000AF00500FA6EDE50FD6EDE50FE6EF8504A
:1014C000FF6EFA5012000001B39F4650D8A46BEF94
:1014D0000AF06DEF0AF06FEF0AF0A9EC10F01200BD
:1014E000800E02012019D8A478EF0AF07AEF0AF0F2
:1014F00029EF0BF0C00E0001BB6F0FEF0BF0C10E18
:101500000001B86F030EB96F000EBD6F120EBC6FF5
:1015100029EF0BF02251D8A490EF0AF092EF0AF0D5
:10152000D3EF0AF02251020D070EF324F66E030EDC
:10153000F420F76E0900F5CFB8F00A00F5CFB9F046
:10154000020E0001B825016E000EB921026E01C025
:10155000F6FF02C0F7FFF86A020EF76403D0080036
:10156000F55005D0F6CFE1FFF7CFE2FFE7500001DD
:10157000BC6F030EB825016E000EB921026E01C0CA
:10158000F6FF02C0F7FFF86A020EF76403D0080006
:10159000F55005D0F6CFE1FFF7CFE2FFE7500001AD
:1015A000BD6F29EF0BF0000E0001BB6F29EF0BF0B0
:1015B000030E2261DEEF0AF0E0EF0AF005EF0BF018
:1015C0002251020D010EF324F66E030EF420F76E85
:1015D0000900F5CFB8F00A00F5CFB9F0B8C0F6FFB2
:1015E000B9C0F7FFF86A020EF76403D00800F5509F
:1015F00005D0F6CFE1FFF7CFE2FFE750016E0150D3
:101600000001BC6FBD6B29EF0BF0000E0001BB6F3A
:1016100029EF0BF0000E0001BB6F29EF0BF0020168
:101620002351016E026A0250000AD8B41AEF0BF07F
:101630000AEF0BF00150010AD8B47FEF0AF0030A59
:10164000D8B48AEF0AF0010AD8B4D8EF0AF00AEF4A
:101650000BF01200A094000E0F015F6F000E626E7F
:10166000000E536F540E0001DF6F0F0EE06F000E7F
:10167000E26F000EE16F000EE46F010EE36F3EECCF
:1016800008F0160E616E9F0E0F015B6F7B0E606E91
:10169000000E0001EB6FEB51040D000EF324D96E28
:1016A000020EF420DA6EDE6ADE6ADE6ADD6AEB2B99
:1016B000070EEB655EEF0BF060EF0BF04BEF0BF0FE
:1016C000648C000E0F015C6F6498649C6296000E3F
:1016D0000001BB6F000EB36F000EB56F000EB46F4C
:1016E00062B675EF0BF077EF0BF066EF0BF0010EC3
:1016F000456E010E446E000E436E000E426E000EEB
:101700004A6E000EEB6FEB51020DBE0EF324D96E44
:10171000000EF420DA6E000EDE6E000EDD6EEB5170
:10172000020DC20EF324D96E000EF420DA6E000E04
:10173000DE6E000EDD6ECC0EEB25D96EDA6A000E81
:10174000DA22000EDF6ECA0EEB25D96EDA6A000EC1
:10175000DA22000EDF6EEB2B010EEB65B2EF0BF021
:10176000B4EF0BF083EF0BF0080EBE6F020EBF6FED
:10177000160E0F01536F020E0201036F200E026F4F
:10178000080E016F040E006F008F000E536E000EE6
:10179000316E000E326E000E336E000E346E000E8F
:1017A000416E000E4E6E1200A094000E0F015F6F8E
:1017B000000E626E000E536F540E016E0F0E026E1D
:1017C000000E046E000E036E000E066E010E056E16
:1017D000FAEC08F0160E616E9F0E0F015B6F7B0E28
:1017E000606E000E0D6E0D50040D000EF324D96EC8
:1017F000020EF420DA6EDE6ADE6ADE6ADD6A0D2A27
:10180000070E0D6406EF0CF008EF0CF0F3EF0BF091
:10181000648C000E0F015C6F6498649C6296000EED
:101820000001BB6F000EB36F000EB56F000EB46FFA
:1018300062B61DEF0CF01FEF0CF00EEF0CF0010E76
:10184000456E010E446E000E436E000E426E000E99
:101850004A6E000E0D6E0D50020DBE0EF324D96EB1
:10186000000EF420DA6E000EDE6E000EDD6E0D50FE
:10187000020DC20EF324D96E000EF420DA6E000EB3
:10188000DE6E000EDD6ECC0E0D24D96EDA6A000E0F
:10189000DA22000EDF6ECA0E0D24D96EDA6A000E4F
:1018A000DA22000EDF6E0D2A010E0D645AEF0CF0E5
:1018B0005CEF0CF02BEF0CF0080E0001BE6F020E77
:1018C000BF6F160E0F01536F020E0201036F200E41
:1018D000026F080E016F040E006F008F000E536E32
:1018E000000E316E000E326E000E336E000E346E3E
:1018F000000E416E000E4E6E12000001E76F0001F7
:10190000DF51D8B486EF0CF088EF0CF096EF0CF0B6
:10191000E751020DBE0EF324D96E000EF420DA6EEC
:10192000DECFE8F0DDCFE9F0A2EF0CF0E751020DD9
:10193000C20EF324D96E000EF420DA6EDECFE8F08A
:10194000DDCFE9F0E851E911D8A4A9EF0CF0ABEF35
:101950000CF0B1EF0CF0000EDF6F000EE06F1DEF2A
:101960000DF020EE02F0E851D926E951DA22E0C06C
:10197000DEFFE1C0DDFF20EE01F0E851D926E9519C
:10198000DA22E2C0DFFFE8C0D9FFE9C0DAFF400E8B
:10199000DF16E8C0D9FFE9C0DAFF000EDB86E8C039
:1019A000D9FFE9C0DAFF000EDB8EDF51D8B4DBEFE0
:1019B0000CF0DDEF0CF0FCEF0CF0E751020DBE0E69
:1019C000F324D96E000EF420DA6EDECFE3F0DDCF23
:1019D000E4F0040EE319E56FE451E66FE751020D00
:1019E000BE0EF324D96E000EF420DA6EE5C0DEFFE1
:1019F000E6C0DDFF19EF0DF0E751020DC20EF32432
:101A0000D96E000EF420DA6EDECFE3F0DDCFE4F025
:101A1000040EE319E56FE451E66FE751020DC20EC3
:101A2000F324D96E000EF420DA6EE5C0DEFFE6C0C6
:101A3000DDFFE8C0DFF0E9C0E0F0120064980001CB
:101A4000BBBF25EF0DF027EF0DF06CEF0DF0B3AF3E
:101A50002CEF0DF02EEF0DF040EF0DF0020E4C6E5E
:101A60004250D8A436EF0DF038EF0DF03AEF0DF0FC
:101A70005CEC12F0000E446E000E456EBEEF0DF0F1
:101A800020EE01F03D50D9263E50DA22080EDF6EDE
:101A900020EE02F03D50D9263E50DA22200EDE6EB6
:101AA000020EDD6E3DC0D9FF3EC0DAFF0C0EDF6EC8
:101AB0003DC0D9FF3EC0DAFF000EDB8EBEC0D9FFAD
:101AC000BFC0DAFF040EDF6EBEC0D9FFBFC0DAFFB1
:101AD000000EDB8EBEEF0DF0020120AF72EF0DF0B5
:101AE00074EF0DF090EF0DF0010E4C6E4350D8A442
:101AF0007CEF0DF07EEF0DF080EF0DF05CEC12F05E
:101B0000000E446E000E456E4650D8A48AEF0DF0CC
:101B10008CEF0DF0BEEF0DF0A9EC10F0BEEF0DF064
:101B2000020E4C6E20EE01F03D50D9263E50DA22D6
:101B3000080EDF6E20EE02F03D50D9263E50DA222C
:101B4000200EDE6E020EDD6E3DC0D9FF3EC0DAFF14
:101B5000040EDF6E3DC0D9FF3EC0DAFF000EDB8E03
:101B6000000E446E000E456E4650D8A4BAEF0DF03C
:101B7000BCEF0DF0BEEF0DF08CEF0DF01200096E12
:101B80000150D8B4C6EF0DF0C8EF0DF0D6EF0DF050
:101B90000950020DBE0EF324D96E000EF420DA6E49
:101BA000DECF0AF0DDCF0BF0E2EF0DF00950020DB1
:101BB000C20EF324D96E000EF420DA6EDECF0AF0E6
:101BC000DDCF0BF00A500B10D8A4E9EF0DF0EBEFCE
:101BD0000DF0F1EF0DF0000E016E000E026E5DEFE4
:101BE0000EF020EE02F00A50D9260B50DA2202C085
:101BF000DEFF03C0DDFF20EE01F00A50D9260B50B6
:101C0000DA2204C0DFFF0AC0D9FF0BC0DAFF400EA2
:101C1000DF160AC0D9FF0BC0DAFF000EDB860AC050
:101C2000D9FF0BC0DAFF000EDB8E0150D8B41BEFDA
:101C30000EF01DEF0EF03CEF0EF00950020DBE0E3F
:101C4000F324D96E000EF420DA6EDECF05F0DDCF7E
:101C500006F0040E0518076E0650086E0950020DB6
:101C6000BE0EF324D96E000EF420DA6E07C0DEFF3C
:101C700008C0DDFF59EF0EF00950020DC20EF3242B
:101C8000D96E000EF420DA6EDECF05F0DDCF06F05F
:101C9000040E0518076E0650086E0950020DC20E9C
:101CA000F324D96E000EF420DA6E07C0DEFF08C000
:101CB000DDFF0AC001F00BC002F01200BEC0D9FF68
:101CC000BFC0DAFF0001000EDFBC010E026E040E81
:101CD000BE19BE6FBF51BF6F080E4E18D8A473EF68
:101CE0000EF075EF0EF088EF0EF0020122517F0B1F
:101CF0000F015C6F5C51D8B480EF0EF082EF0EF0F4
:101D000086EF0EF0100E4E6E88EF0EF0040E4E6E43
:101D10004C04D8A48EEF0EF090EF0EF0D8EF0EF03A
:101D2000000120EE02F0BE51D926BF51DA22280E62
:101D3000DE6E020EDD6E21EC10F0020E4D18D8A4FE
:101D4000A4EF0EF0A6EF0EF0B4EF0EF0BEC0D9FF78
:101D5000BFC0DAFF040EDF6EBEC0D9FFBFC0DAFF1E
:101D6000000EDB8EFCEF0EF00250D8A4BAEF0EF09E
:101D7000BCEF0EF0CAEF0EF0BEC0D9FFBFC0DAFF55
:101D8000480EDF6EBEC0D9FFBFC0DAFF000EDB8E8B
:101D9000FCEF0EF0BEC0D9FFBFC0DAFF080EDF6E49
:101DA000BEC0D9FFBFC0DAFF000EDB8EFCEF0EF025
:101DB0000001B3AFDEEF0EF0E0EF0EF0FAEF0EF041
:101DC000B651B711D8B4E7EF0EF0E9EF0EF0F8EF27
:101DD0000EF020EEB6F002D8F8EF0EF00500FA6E25
:101DE000DE50FD6EDE50FE6EF850FF6EFA501200AF
:101DF0000001B39F000E4C6E120002012039E83240
:101E0000030B0009D8B407EF0FF009EF0FF056EFFE
:101E10000FF08FEF0FF00001BB8F080E4E6E8FEFAB
:101E20000FF070EC0AF08FEF0FF022EC11F08FEF53
:101E30000FF0530E0001B86F000EB96FBB81010E99
:101E4000BC6FBB8F8FEF0FF090EC0FF08FEF0FF0A8
:101E5000D9EC03F08FEF0FF0520E24250001B86F7C
:101E6000B96B000EB923BB81010EBC6FBB8F8FEF26
:101E70000FF00001BB8F520E02012425D96EDA6AE1
:101E8000000EDA2222C2DFFF8FEF0FF0000E0E6E7F
:101E9000020E0D6E000E0F6E000E106E000E126E12
:101EA000000E116E97EC11F08FEF0FF021511C6EA8
:101EB0001D6A1D50000AD8B460EF0FF08FEF0FF0CD
:101EC0001C50000AD8B424EF0FF0010AD8B428EF50
:101ED0000FF0020AD8B428EF0FF0060AD8B40BEFBF
:101EE0000FF0030AD8B411EF0FF0010AD8B446EF8F
:101EF0000FF00F0AD8B419EF0FF0010AD8B415EF9C
:101F00000FF0030AD8B42CEF0FF0010AD8B439EF60
:101F10000FF0070AD8B48FEF0FF08FEF0FF0120019
:101F2000000E0201286F000E296FF7EF0FF000017D
:101F3000BB8F4B04D8A49FEF0FF0A1EF0FF011EF70
:101F400010F00201288311EF10F00001BB8F11EF98
:101F500010F00001BB8F020124510F0B0009D8B40F
:101F6000B4EF0FF0B6EF0FF011EF10F024BFBBEF9E
:101F70000FF0BDEF0FF0CEEF0FF024510F0B016EFD
:101F80000150020DC20EF324D96E000EF420DA6E59
:101F9000DECF03F0DDCF04F0DDEF0FF024510F0BA7
:101FA000016E0150020DBE0EF324D96E000EF42016
:101FB000DA6EDECF03F0DDCF04F003C0D9FF04C03A
:101FC000DAFFDFAEE6EF0FF0E8EF0FF011EF10F001
:101FD00003C0D9FF04C0DAFFDFA4F1EF0FF0F3EF85
:101FE0000FF011EF10F0010E286F11EF10F02051DB
:101FF0001F0B016E026A0250000AD8B402EF10F003
:1020000011EF10F00150000AD8B497EF0FF0010A59
:10201000D8B4A5EF0FF0030AD8B4A9EF0FF011EF71
:1020200010F00001BBAF17EF10F019EF10F020EF28
:1020300010F0280EB86F020EB96FBB81020EBC6F94
:102040001200080E016E0001BD5107E1080EBC5DD3
:10205000D8B02DEF10F02FEF10F047EF10F0BCC00C
:1020600001F04D50D8A437EF10F039EF10F03DEFEC
:1020700010F0010E4D6E47EF10F04D04D8A443EF61
:1020800010F045EF10F047EF10F0020E4D6E0150CA
:10209000BC5F000EBD5B20EE01F0BE51D926BF51E2
:1020A000DA2201C0DFFF280E3B6E020E3C6EBBB190
:1020B0005CEF10F05EEF10F0A0EF10F07BEF10F08F
:1020C000B8C0F6FFB9C0F7FFF86A3BC0D9FF3CC003
:1020D000DAFF020EF76403D00800F55005D0F6CF02
:1020E000E1FFF7CFE2FFE750DF6E0001B84BB92BFD
:1020F0003B4A3C2A01060150D8A481EF10F083EF3F
:1021000010F060EF10F0A8EF10F0B8C0F6FFB9C003
:10211000F7FFF86A3BC0D9FF3CC0DAFF020EF76454
:1021200003D00800F55005D0F6CFE1FFF7CFE2FF6E
:10213000E750DF6E0001B84BB92B3B4A3C2A010641
:102140000150D8A4A6EF10F0A8EF10F085EF10F022
:1021500012004550D8A4AFEF10F0B1EF10F021EF0E
:1021600011F0010E456E4450D8A4B9EF10F0BBEF4A
:1021700010F021EF11F0010E446E020E4C18D8A49D
:10218000C4EF10F0C6EF10F0DDEF10F0000120EE0C
:1021900001F0BE51D926BF51DA22000EDF6EBEC05B
:1021A000D9FFBFC0DAFF480EDF6EBEC0D9FFBFC087
:1021B000DAFF000EDB8E21EF11F04C04D8A4E3EF20
:1021C00010F0E5EF10F021EF11F0000E486E20EE58
:1021D00001F03F50D9264050DA22080EDF6E20EE83
:1021E00002F03F50D9264050DA22200EDE6E020E59
:1021F000DD6E3FC0D9FF40C0DAFF040EDF6E3FC086
:10220000D9FF40C0DAFF000EDB8E010E486E20EED3
:1022100001F03D50D9263E50DA22080EDF6E20EE46
:1022200002F03D50D9263E50DA22200EDE6E020E1C
:10223000DD6E3DC0D9FF3EC0DAFF800EDF6E21EFBC
:1022400011F012000001BB8F540E016E0F0E026ED2
:10225000000E046E000E036E000E066E010E056E7B
:10226000FAEC08F0000E016E020E026E000E046E13
:10227000000E036E000E066E200E056EFAEC08F0DE
:10228000648C000E156ECC0E1524D96EDA6A000E21
:10229000DA22000EDF6ECA0E1524D96EDA6A000E3D
:1022A000DA22000EDF6E152A010E15645AEF11F0C6
:1022B0005CEF11F043EF11F0520E016E000E026E52
:1022C000000E046E000E036E000E066E010E056E0B
:1022D000FAEC08F0649C080E0001BE6F020EBF6F9E
:1022E000000E3F6E020E406E3FC03DF040C03EF01B
:1022F00022C253F05350D8A480EF11F082EF11F0B6
:1023000086EF11F0100E4E6E96EF11F0000E0E6E6D
:10231000010E0D6E530E0F6E000E106E000E126E3B
:10232000010E116E97EC11F0200E4E6E1200C6EFEA
:1023300011F076EC16F0392809E17F0E3A18D8B47E
:10234000A4EF11F0A6EF11F0AAEF11F0394A3A2AE2
:10235000FFEF11F0000E3A6E000E396EFFEF11F034
:1023600076EC16F0010EB7EC15F0FFEF11F076ECFD
:1023700016F0020EB7EC15F0FFEF11F018EC14F0A8
:10238000FFEF11F07BEC07F0FFEF11F00DC013F041
:102390000EC014F01450000AD8B4D5EF11F07F0A23
:1023A000D8B4F8EF11F0FFEF11F01350010AD8B4D0
:1023B000BEEF11F0030AD8B4FFEF11F0010AD8B450
:1023C000C2EF11F0060AD8B4FFEF11F0770AD8B4C3
:1023D000FFEF11F0010AD8B499EF11F0070AD8B451
:1023E000B7EF11F0010AD8B4B0EF11F0FFEF11F020
:1023F0001350FF0AD8B4FFEF11F0FFEF11F01200F5
:102400002D0E476E51C01EF0FD0E1E16D8A40BEF08
:1024100012F00DEF12F04FEF12F051C01EF0D890F5
:102420001E323F0E1E161E50040D000EF3243F6E8A
:10243000020EF420406E3FC03DF040C03EF0040E5E
:102440003D183D6E3E503E6E3FC0D9FF40C0DAFFA2
:10245000DF30E8320F0B0D0AD8A431EF12F033EF62
:1024600012F04BEF12F0200E016E020E026E20EE03
:1024700002F03F50D9264050DA22DECF03F0DDCF04
:1024800004F0000E066E080E056E7BEC14F063EC93
:1024900013F05BEF12F0ABEC13F05BEF12F0515066
:1024A000FD0B040AD8A457EF12F059EF12F05BEFBE
:1024B00012F05EEC0EF01200000E436E000E426E43
:1024C000020E4C18D8A467EF12F069EF12F089EFF2
:1024D00012F020EE01F03D50D9263E50DA22080ECF
:1024E000DF6E20EE02F03D50D9263E50DA22280E53
:1024F000DE6E020EDD6E3DC0D9FF3EC0DAFF480E33
:10250000DF6E3DC0D9FF3EC0DAFF000EDB8EB5EFB7
:1025100012F00001BC510201265D0001BD51020113
:102520002759D8B096EF12F098EF12F09CEF12F006
:1025300026C2BCF027C2BDF021EC10F0000120EE55
:1025400002F0BE51D926BF51DA22280EDE6E020EED
:10255000DD6EBEC0D9FFBFC0DAFF480EDF6EBEC061
:10256000D9FFBFC0DAFF000EDB8E1200C80EE82EC6
:10257000FED752EC16F0000E0001F06F000EEF6F68
:1025800082500F0BEE6F6CEC16F08238F00BF00BF4
:102590000001EE13CF0EEF25D96E000EF021DA6E9A
:1025A000EEC0DFFF67EC16F00001EF4BF02BF0BF41
:1025B000E3EF12F0F05109E1090EEF5DD8A0E3EF6F
:1025C00012F0E5EF12F0C0EF12F0000EF26F000E05
:1025D000F16FD80EF125D96E000EF221DA6E000EE1
:1025E000DF6EF14BF22BF25109E1060EF15DD8A03E
:1025F000FCEF12F0FEEF12F0E9EF12F0CF0EDF6FFA
:10260000000EE06FDE0EE16F000EE26FD80EE36F9A
:10261000000EE46F9CEC06F01200066E000E076ED2
:10262000020E086E0150026E036AD890023603361D
:102630000650046E056AD89004360536D8900436E4
:1026400005360250042603500522D890043605367C
:10265000D89004360536045007260550082207C0D6
:10266000D9FF08C0DAFFDF9E0150D8A43AEF13F07B
:102670003CEF13F04AEF13F00650020DC20EF324A4
:10268000D96E000EF420DA6E07C0DEFF08C0DDFF51
:1026900056EF13F00650020DBE0EF324D96E000E55
:1026A000F420DA6E07C0DEFF08C0DDFF07C0D9FFE7
:1026B00008C0DAFFDF9C20EE04F00750D92608504E
:1026C000DA22DF8C1200000E4D6E000E466E000EF8
:1026D000436E000E426E000E486E000E4C6EBEC081
:1026E000D9FFBFC0DAFF7F0EDF16040E0001BE194E
:1026F000BE6FBF51BF6FBEC0D9FFBFC0DAFF7F0E34
:10270000DF16040EBE19BE6FBF51BF6F3DC0D9FFAB
:102710003EC0DAFF7F0EDF16000EBB6F000EBD6FEE
:10272000000EBC6F000EB36F000EB56F000EB46FDD
:10273000FDEC0EF0000E0E6E030E0D6E000E0F6E11
:10274000000E106E000E126E000E116E97EC11F05E
:102750001EEC0DF01200020E4C18D8A4B2EF13F0CC
:10276000B4EF13F0B8EF13F0B5EC09F0E4EF13F0A9
:10277000000E4C6E4850D8A4C0EF13F0C2EF13F017
:10278000E2EF13F020EE01F03D50D9263E50DA2260
:10279000080EDF6E20EE02F03D50D9263E50DA22C0
:1027A000200EDE6E020EDD6E3DC0D9FF3EC0DAFFA8
:1027B0000C0EDF6E3DC0D9FF3EC0DAFF000EDB8E8F
:1027C000E4EF13F0000E486E1200DA0EF66E290EDA
:1027D000F76E000EF86E01EE00F010EE48F0090002
:1027E000F5CFEEFFE550E150FAE1920EF66E290EBC
:1027F000F76E000EF86E00EE60F010EE48F0090083
:10280000F5CFEEFFE550E150FAE100EEA8F0370E0B
:10281000EE6AE806FDE100EE2CF0280EEE6AE8060E
:10282000FDE154905492000EF86E000117EF16F07F
:10283000000E2C6E000E2D6E040E306E010E000187
:10284000C96FF40EC86F29EF14F039C037F03AC0E1
:1028500038F03950371807E13A503818D8A433EF18
:1028600014F035EF14F025EF14F01E0E096E010E72
:10287000A3EC14F0000E016E480E026E020E036E01
:10288000010E046E010EBFEC0DF001C02EF002C06F
:102890002FF012000F0153A150EF14F052EF14F07B
:1028A00079EF14F03FC0D9FF40C0DAFF800EDE1888
:1028B000D8A45DEF14F05FEF14F078EF14F0BEC011
:1028C000D9FFBFC0DAFF840EDE18D8A46AEF14F077
:1028D0006CEF14F078EF14F03FC0D9FF40C0DAFF7E
:1028E0000C0EDF6E3FC0D9FF40C0DAFF000EDB8E5A
:1028F0005391629A120003C009F004C00AF001C0AB
:1029000007F002C008F095EF14F009C0D9FF0AC023
:10291000DAFFDF500B6E094A0A2A07C0D9FF08C048
:10292000DAFF0BC0DFFF074A082A0506D8A0060613
:10293000052806E10628D8A4A0EF14F0A2EF14F0B1
:1029400085EF14F012000C6E09A4A9EF14F0ABEFA0
:1029500014F0B0EF14F0000E016E0C500DEC13F0FB
:1029600009A2B5EF14F0B7EF14F0BCEF14F0010EAC
:10297000016E0C500DEC13F0530E0C240A6E0B6A12
:102980000F0E0B220AC0D9FF0BC0DAFF09C0DFFF10
:1029900012004128303235FF892A402F34338738DE
:1029A0002D2E3F120F0E373613273E0C180D101127
:1029B00026253D1C0A0B051924233C17150709067B
:1029C00022213B1A16041B1D08203A2B14FFFFFF7F
:1029D0001E1F39524F50512C4C49FFFFFFFFFFFF84
:1029E000FF3548FFFFFFFF65FFFF47FFFFFFFFFFCA
:1029F000FFFF46FFFFFFFFFFFFFF45FFFFFFFFFF5A
:102A0000FFFF44FFFFFFFFFFFFFF43FFFFFFE3392F
:102A1000FFFF4229FFFFFFFFFFFF8B4B4D4A4E2C6C
:102A20008A884E50D8A417EF15F019EF15F034EF3F
:102A300015F0000E646E000E606E160E616E9F0E35
:102A40000F015B6F7B0E606ED08EA284A084F28E2D
:102A50002BEF15F0648664A630EF15F032EF15F019
:102A60002AEF15F0010E4E6E1200020148A33BEF53
:102A700015F03DEF15F040EF15F08B8A41EF15F0A2
:102A80008B9A48A146EF15F048EF15F04BEF15F083
:102A90008B8E4CEF15F08B9E48A551EF15F053EF40
:102AA00015F056EF15F08B8C57EF15F08B9C12003C
:102AB000020148A35EEF15F060EF15F063EF15F02B
:102AC0008B8A64EF15F08B9A48A169EF15F06BEFD4
:102AD00015F06EEF15F08B8E6FEF15F08B9E48A5FD
:102AE00074EF15F076EF15F079EF15F08B8C7AEF27
:102AF00015F08B9C1200000E4A6E000E0E6E740EC6
:102B00000D6E000E0F6E000E106E000E126E000E97
:102B1000116E97EC11F06492609490EF15F062944E
:102B200062B495EF15F097EF15F08FEF15F0000EEA
:102B3000416E12000001E16F0001E151DF6FE06BB7
:102B4000E051000AD8B4A7EF15F0B6EF15F0DF5149
:102B5000000AD8B4B6EF15F0010AD8B4B6EF15F0F4
:102B6000030AD8B4B6EF15F0B6EF15F01200036EF5
:102B70000350016E026A0250000AD8B4C2EF15F089
:102B8000D1EF15F00150000AD8B4D1EF15F0010AC9
:102B9000D8B4D1EF15F0030AD8B4D1EF15F0D1EFC6
:102BA00015F01200010E3126000E3222332234229B
:102BB0004A50D8A4DEEF15F0E0EF15F0EAEF15F07B
:102BC000412A4150D8A4E7EF15F0E9EF15F0EAEFFC
:102BD00015F041681200000E896E000E8A6E000E1C
:102BE0008B6E300E926E100E936E1F0E946E000E52
:102BF0007E6E000E7F6EE00E786E000E776EF18EA8
:102C00001200608462986482010E4A6E000E416E6A
:102C1000000E0E6E750E0D6E000E0F6E000E106E15
:102C2000000E126E000E116E97EC11F01200000EE5
:102C30009AEC15F062EC16F02AEC0BF011EC15F0A2
:102C40008A8EB6EC12F0ECEC01F021EF16F039EFC1
:102C500000F0280E0001B06F020EB16F000EB56FCC
:102C6000080EB46FE20EB66F2C0EB76FB38F120062
:102C7000026E0250D8A43FEF16F041EF16F045EF78
:102C800016F001C0C8F00001C96B120082B84BEF0A
:102C900016F04DEF16F050EF16F0010E51EF16F052
:102CA000000E12008A8A280EE82EFED78A9AC80ED5
:102CB000E82EFED71200300ED36E040ED26E000E38
:102CC0009B6E1200EBEC15F05BEC16F012008A9C88
:102CD000C80EE82EFED712008A8CC80EE82EFED74A
:0E2CE000120028C248F258EC15F01200120043
:020000040020DA
:08000000FFFFFFFFFFFFFFFF00
:020000040030CA
:0E0000000032011EFF0081FF03C003E0034039
:00000001FF
